{
  "contractName": "WzToken",
  "abi": [
    {
      "inputs": [],
      "stateMutability": "nonpayable",
      "type": "constructor"
    },
    {
      "anonymous": false,
      "inputs": [
        {
          "indexed": true,
          "internalType": "address",
          "name": "_owner",
          "type": "address"
        },
        {
          "indexed": true,
          "internalType": "address",
          "name": "_spender",
          "type": "address"
        },
        {
          "indexed": false,
          "internalType": "uint256",
          "name": "_value",
          "type": "uint256"
        }
      ],
      "name": "Approval",
      "type": "event"
    },
    {
      "anonymous": false,
      "inputs": [
        {
          "indexed": true,
          "internalType": "address",
          "name": "from",
          "type": "address"
        },
        {
          "indexed": true,
          "internalType": "address",
          "name": "to",
          "type": "address"
        },
        {
          "indexed": false,
          "internalType": "uint256",
          "name": "value",
          "type": "uint256"
        }
      ],
      "name": "Transfer",
      "type": "event"
    },
    {
      "inputs": [
        {
          "internalType": "address",
          "name": "",
          "type": "address"
        },
        {
          "internalType": "address",
          "name": "",
          "type": "address"
        }
      ],
      "name": "allowance",
      "outputs": [
        {
          "internalType": "uint256",
          "name": "",
          "type": "uint256"
        }
      ],
      "stateMutability": "view",
      "type": "function",
      "constant": true
    },
    {
      "inputs": [
        {
          "internalType": "address",
          "name": "",
          "type": "address"
        }
      ],
      "name": "balanceOf",
      "outputs": [
        {
          "internalType": "uint256",
          "name": "",
          "type": "uint256"
        }
      ],
      "stateMutability": "view",
      "type": "function",
      "constant": true
    },
    {
      "inputs": [],
      "name": "decimals",
      "outputs": [
        {
          "internalType": "uint256",
          "name": "",
          "type": "uint256"
        }
      ],
      "stateMutability": "view",
      "type": "function",
      "constant": true
    },
    {
      "inputs": [],
      "name": "name",
      "outputs": [
        {
          "internalType": "string",
          "name": "",
          "type": "string"
        }
      ],
      "stateMutability": "view",
      "type": "function",
      "constant": true
    },
    {
      "inputs": [],
      "name": "symbol",
      "outputs": [
        {
          "internalType": "string",
          "name": "",
          "type": "string"
        }
      ],
      "stateMutability": "view",
      "type": "function",
      "constant": true
    },
    {
      "inputs": [],
      "name": "totaSupply",
      "outputs": [
        {
          "internalType": "uint256",
          "name": "",
          "type": "uint256"
        }
      ],
      "stateMutability": "view",
      "type": "function",
      "constant": true
    },
    {
      "inputs": [
        {
          "internalType": "address",
          "name": "_to",
          "type": "address"
        },
        {
          "internalType": "uint256",
          "name": "_value",
          "type": "uint256"
        }
      ],
      "name": "transfer",
      "outputs": [
        {
          "internalType": "bool",
          "name": "",
          "type": "bool"
        }
      ],
      "stateMutability": "nonpayable",
      "type": "function"
    },
    {
      "inputs": [
        {
          "internalType": "address",
          "name": "_spender",
          "type": "address"
        },
        {
          "internalType": "uint256",
          "name": "_value",
          "type": "uint256"
        }
      ],
      "name": "approve",
      "outputs": [
        {
          "internalType": "bool",
          "name": "",
          "type": "bool"
        }
      ],
      "stateMutability": "nonpayable",
      "type": "function"
    },
    {
      "inputs": [
        {
          "internalType": "address",
          "name": "_from",
          "type": "address"
        },
        {
          "internalType": "address",
          "name": "_to",
          "type": "address"
        },
        {
          "internalType": "uint256",
          "name": "_value",
          "type": "uint256"
        }
      ],
      "name": "transferFrom",
      "outputs": [
        {
          "internalType": "bool",
          "name": "success",
          "type": "bool"
        }
      ],
      "stateMutability": "nonpayable",
      "type": "function"
    }
  ],
  "bytecode": "0x60806040526040518060400160405280600781526020017f577a546f6b656e00000000000000000000000000000000000000000000000000815250600090816200004a919062000398565b506040518060400160405280600381526020017f575a5400000000000000000000000000000000000000000000000000000000008152506001908162000091919062000398565b506012600255348015620000a457600080fd5b50600254600a620000b6919062000602565b620f4240620000c6919062000653565b600381905550600354600460003373ffffffffffffffffffffffffffffffffffffffff1673ffffffffffffffffffffffffffffffffffffffff168152602001908152602001600020819055506200069e565b600081519050919050565b7f4e487b7100000000000000000000000000000000000000000000000000000000600052604160045260246000fd5b7f4e487b7100000000000000000000000000000000000000000000000000000000600052602260045260246000fd5b600060028204905060018216806200019a57607f821691505b602082108103620001b057620001af62000152565b5b50919050565b60008190508160005260206000209050919050565b60006020601f8301049050919050565b60008160020a8302905092915050565b6000600883026200021d7fffffffffffffffffffffffffffffffffffffffffffffffffffffffffffffffff82620001db565b620002298683620001db565b95508019841693508086168417925050509392505050565b6000819050919050565b6000819050919050565b600062000276620002706200026a8462000241565b6200024b565b62000241565b9050919050565b6000819050919050565b620002928362000255565b620002aa620002a1826200027d565b848454620001eb565b825550505050565b600090565b620002c1620002b2565b620002ce81848462000287565b505050565b5b81811015620002f657620002ea600082620002b7565b600181019050620002d4565b5050565b601f82111562000345576200030f81620001b6565b6200031a84620001cb565b810160208510156200032a578190505b620003426200033985620001cb565b830182620002d3565b50505b505050565b60008160020a8304905092915050565b60006200036d600019846008026200034a565b1980831691505092915050565b60006200038883836200035a565b9150826002028217905092915050565b620003a38262000118565b67ffffffffffffffff811115620003bf57620003be62000123565b5b620003cb825462000181565b620003d8828285620002fa565b600060209050601f831160018114620004105760008415620003fb578287015190505b6200040785826200037a565b86555062000477565b601f1984166200042086620001b6565b60005b828110156200044a5784890151825560018201915060208501945060208101905062000423565b868310156200046a578489015162000466601f8916826200035a565b8355505b6001600288020188555050505b505050505050565b7f4e487b7100000000000000000000000000000000000000000000000000000000600052601160045260246000fd5b6000600282049050919050565b6000808291508390505b60018511156200050d57808604811115620004e557620004e46200047f565b5b6001851615620004f55780820291505b80810290506200050585620004ae565b9450620004c5565b94509492505050565b600082620005285760019050620005fb565b81620005385760009050620005fb565b81600181146200055157600281146200055c5762000592565b6001915050620005fb565b60ff8411156200057157620005706200047f565b5b8360020a9150848211156200058b576200058a6200047f565b5b50620005fb565b5060208310610133831016604e8410600b8410161715620005cc5782820a905083811115620005c657620005c56200047f565b5b620005fb565b620005db8484846001620004bb565b92509050818404811115620005f557620005f46200047f565b5b81810290505b9392505050565b60006200060f8262000241565b91506200061c8362000241565b92506200064b7fffffffffffffffffffffffffffffffffffffffffffffffffffffffffffffffff848462000516565b905092915050565b6000620006608262000241565b91506200066d8362000241565b92508282026200067d8162000241565b915082820484148315176200069757620006966200047f565b5b5092915050565b610e6b80620006ae6000396000f3fe608060405234801561001057600080fd5b50600436106100b0576000357c01000000000000000000000000000000000000000000000000000000009004806370a082311161008357806370a082311461015157806395d89b4114610181578063a9059cbb1461019f578063dd62ed3e146101cf578063e1a6cadc146101ff576100b0565b806306fdde03146100b5578063095ea7b3146100d357806323b872dd14610103578063313ce56714610133575b600080fd5b6100bd61021d565b6040516100ca9190610a4b565b60405180910390f35b6100ed60048036038101906100e89190610b06565b6102ab565b6040516100fa9190610b61565b60405180910390f35b61011d60048036038101906101189190610b7c565b61048d565b60405161012a9190610b61565b60405180910390f35b61013b610689565b6040516101489190610bde565b60405180910390f35b61016b60048036038101906101669190610bf9565b61068f565b6040516101789190610bde565b60405180910390f35b6101896106a7565b6040516101969190610a4b565b60405180910390f35b6101b960048036038101906101b49190610b06565b610735565b6040516101c69190610b61565b60405180910390f35b6101e960048036038101906101e49190610c26565b610784565b6040516101f69190610bde565b60405180910390f35b6102076107a9565b6040516102149190610bde565b60405180910390f35b6000805461022a90610c95565b80601f016020809104026020016040519081016040528092919081815260200182805461025690610c95565b80156102a35780601f10610278576101008083540402835291602001916102a3565b820191906000526020600020905b81548152906001019060200180831161028657829003601f168201915b505050505081565b60008073ffffffffffffffffffffffffffffffffffffffff168373ffffffffffffffffffffffffffffffffffffffff160361031b576040517f08c379a000000000000000000000000000000000000000000000000000000000815260040161031290610d12565b60405180910390fd5b81600460003373ffffffffffffffffffffffffffffffffffffffff1673ffffffffffffffffffffffffffffffffffffffff16815260200190815260200160002054101561039d576040517f08c379a000000000000000000000000000000000000000000000000000000000815260040161039490610d7e565b60405180910390fd5b81600560003373ffffffffffffffffffffffffffffffffffffffff1673ffffffffffffffffffffffffffffffffffffffff16815260200190815260200160002060008573ffffffffffffffffffffffffffffffffffffffff1673ffffffffffffffffffffffffffffffffffffffff168152602001908152602001600020819055508273ffffffffffffffffffffffffffffffffffffffff163373ffffffffffffffffffffffffffffffffffffffff167f8c5be1e5ebec7d5bd14f71427d1e84f3dd0314c0f7b2291e5b200ac8c7c3b9258460405161047b9190610bde565b60405180910390a36001905092915050565b600081600460008673ffffffffffffffffffffffffffffffffffffffff1673ffffffffffffffffffffffffffffffffffffffff1681526020019081526020016000205410156104db57600080fd5b81600560008673ffffffffffffffffffffffffffffffffffffffff1673ffffffffffffffffffffffffffffffffffffffff16815260200190815260200160002060003373ffffffffffffffffffffffffffffffffffffffff1673ffffffffffffffffffffffffffffffffffffffff16815260200190815260200160002054101561056457600080fd5b6105f382600560008773ffffffffffffffffffffffffffffffffffffffff1673ffffffffffffffffffffffffffffffffffffffff16815260200190815260200160002060003373ffffffffffffffffffffffffffffffffffffffff1673ffffffffffffffffffffffffffffffffffffffff168152602001908152602001600020546107af90919063ffffffff16565b600560008673ffffffffffffffffffffffffffffffffffffffff1673ffffffffffffffffffffffffffffffffffffffff16815260200190815260200160002060003373ffffffffffffffffffffffffffffffffffffffff1673ffffffffffffffffffffffffffffffffffffffff1681526020019081526020016000208190555061067e8484846107c5565b600190509392505050565b60025481565b60046020528060005260406000206000915090505481565b600180546106b490610c95565b80601f01602080910402602001604051908101604052809291908181526020018280546106e090610c95565b801561072d5780601f106107025761010080835404028352916020019161072d565b820191906000526020600020905b81548152906001019060200180831161071057829003601f168201915b505050505081565b60008073ffffffffffffffffffffffffffffffffffffffff168373ffffffffffffffffffffffffffffffffffffffff160361076f57600080fd5b61077a3384846107c5565b6001905092915050565b6005602052816000526040600020602052806000526040600020600091509150505481565b60035481565b600081836107bd9190610dcd565b905092915050565b80600460008573ffffffffffffffffffffffffffffffffffffffff1673ffffffffffffffffffffffffffffffffffffffff16815260200190815260200160002054101561081157600080fd5b61086381600460008673ffffffffffffffffffffffffffffffffffffffff1673ffffffffffffffffffffffffffffffffffffffff168152602001908152602001600020546107af90919063ffffffff16565b600460008573ffffffffffffffffffffffffffffffffffffffff1673ffffffffffffffffffffffffffffffffffffffff168152602001908152602001600020819055506108f881600460008573ffffffffffffffffffffffffffffffffffffffff1673ffffffffffffffffffffffffffffffffffffffff168152602001908152602001600020546109a590919063ffffffff16565b600460008473ffffffffffffffffffffffffffffffffffffffff1673ffffffffffffffffffffffffffffffffffffffff168152602001908152602001600020819055508173ffffffffffffffffffffffffffffffffffffffff168373ffffffffffffffffffffffffffffffffffffffff167fddf252ad1be2c89b69c2b068fc378daa952ba7f163c4a11628f55a4df523b3ef836040516109989190610bde565b60405180910390a3505050565b600081836109b39190610e01565b905092915050565b600081519050919050565b600082825260208201905092915050565b60005b838110156109f55780820151818401526020810190506109da565b60008484015250505050565b6000601f19601f8301169050919050565b6000610a1d826109bb565b610a2781856109c6565b9350610a378185602086016109d7565b610a4081610a01565b840191505092915050565b60006020820190508181036000830152610a658184610a12565b905092915050565b600080fd5b600073ffffffffffffffffffffffffffffffffffffffff82169050919050565b6000610a9d82610a72565b9050919050565b610aad81610a92565b8114610ab857600080fd5b50565b600081359050610aca81610aa4565b92915050565b6000819050919050565b610ae381610ad0565b8114610aee57600080fd5b50565b600081359050610b0081610ada565b92915050565b60008060408385031215610b1d57610b1c610a6d565b5b6000610b2b85828601610abb565b9250506020610b3c85828601610af1565b9150509250929050565b60008115159050919050565b610b5b81610b46565b82525050565b6000602082019050610b766000830184610b52565b92915050565b600080600060608486031215610b9557610b94610a6d565b5b6000610ba386828701610abb565b9350506020610bb486828701610abb565b9250506040610bc586828701610af1565b9150509250925092565b610bd881610ad0565b82525050565b6000602082019050610bf36000830184610bcf565b92915050565b600060208284031215610c0f57610c0e610a6d565b5b6000610c1d84828501610abb565b91505092915050565b60008060408385031215610c3d57610c3c610a6d565b5b6000610c4b85828601610abb565b9250506020610c5c85828601610abb565b9150509250929050565b7f4e487b7100000000000000000000000000000000000000000000000000000000600052602260045260246000fd5b60006002820490506001821680610cad57607f821691505b602082108103610cc057610cbf610c66565b5b50919050565b7fe68e88e69d83e4baa4e69893e68980e59cb0e59d80e69c89e8afaf0000000000600082015250565b6000610cfc601b836109c6565b9150610d0782610cc6565b602082019050919050565b60006020820190508181036000830152610d2b81610cef565b9050919050565b7fe68e88e69d83e9a29de5baa6e8bf87e5a4a70000000000000000000000000000600082015250565b6000610d686012836109c6565b9150610d7382610d32565b602082019050919050565b60006020820190508181036000830152610d9781610d5b565b9050919050565b7f4e487b7100000000000000000000000000000000000000000000000000000000600052601160045260246000fd5b6000610dd882610ad0565b9150610de383610ad0565b9250828203905081811115610dfb57610dfa610d9e565b5b92915050565b6000610e0c82610ad0565b9150610e1783610ad0565b9250828201905080821115610e2f57610e2e610d9e565b5b9291505056fea2646970667358221220a2e84655d2840b8a942c34df76afecde21961d7cd2721a743795949bc948bd0464736f6c63430008110033",
  "immutableReferences": {},
  "source": "// SPDX-License-Identifier: GPL - 3.0\npragma solidity >=0.4.16 <0.9.0; // solidity\nimport \"openzeppelin-solidity/contracts/utils/math/SafeMath.sol\";\n\ncontract WzToken {\n    using SafeMath for uint256; //uint256sub  add \n    string public name = \"WzToken\";\n    string public symbol = \"WZT\";\n\n    uint256 public decimals = 18;\n    uint256 public totaSupply;\n\n    /**/\n    mapping(address => uint256) public balanceOf;\n    mapping(address => mapping(address => uint256)) public allowance;\n\n    constructor() {\n        totaSupply = 1000000 * (10**decimals);\n        // \n        balanceOf[msg.sender] = totaSupply;\n    }\n\n    /* */\n    event Transfer(address indexed from, address indexed to, uint256 value); //\n    event Approval(\n        address indexed _owner,\n        address indexed _spender,\n        uint256 _value\n    ); //\n\n    function transfer(address _to, uint256 _value) public returns (bool) {\n        require(_to != address(0));\n        _transfer(msg.sender, _to, _value);\n        return true;\n    }\n\n    function _transfer(\n        address _from,\n        address _to,\n        uint256 _value\n    ) internal {\n        require(balanceOf[_from] >= _value);\n        balanceOf[_from] = balanceOf[_from].sub(_value);\n        balanceOf[_to] = balanceOf[_to].add(_value);\n        emit Transfer(_from, _to, _value);\n    }\n\n    function approve(address _spender, uint256 _value) public returns (bool) {\n        // _spender \n        // msg.sender \n        // _value \n        require(_spender != address(0), unicode\"\");\n        require(balanceOf[msg.sender] >= _value, unicode\"\");\n        allowance[msg.sender][_spender] = _value;\n        emit Approval(msg.sender, _spender, _value);\n        return true;\n    }\n\n    //\n    function transferFrom(address _from, address _to, uint256 _value) public returns (bool success){\n        //_from \n        //_to   \n        //msg.sender \n        require(balanceOf[_from]>=_value);\n        require(allowance[_from][msg.sender]>=_value);\n\n        allowance[_from][msg.sender] = allowance[_from][msg.sender].sub(_value);\n        _transfer(_from, _to, _value);\n        return true;\n    }\n}\n",
  "sourcePath": "/Users/wangzhen/Desktop/githubBudWang/my-first-Dapp/contracts/WzToken.sol",
  "compiler": {
    "name": "solc",
    "version": "0.8.17+commit.8df45f5f.Emscripten.clang"
  },
  "schemaVersion": "3.4.11",
  "updatedAt": "2023-02-12T09:39:35.363Z",
  "networkType": "ethereum",
  "devdoc": {
    "kind": "dev",
    "methods": {},
    "version": 1
  },
  "userdoc": {
    "kind": "user",
    "methods": {},
    "version": 1
  }
}